:100000000C942A000C9434000C9434000C943400AA
:100010000C9434000C9434000C9434000C94340090
:100020000C9434000C9434000C9434000C94340080
:100030000C9434000C9434000C9434000C94340070
:100040000C9434000C9434000C9434000C94340060
:100050000C94340011241FBECFE5D4E0DEBFCDBF29
:100060000E9436000C949C000C94000087E784BB2F
:1000700084E685BB2FEF80E792E0215080409040DE
:10008000E1F700C0000082E685BB2FEF80E792E039
:10009000215080409040E1F700C0000081E685BB20
:1000A0002FEF80E792E0215080409040E1F700C0C0
:1000B000000084E585BB2FEF80E792E0215080406F
:1000C0009040E1F700C0000082E585BB2FEF80E79C
:1000D00092E0215080409040E1F700C0000081E5AF
:1000E00085BB2FEF80E792E0215080409040E1F700
:1000F00000C0000084E385BB2FEF80E792E0215031
:1001000080409040E1F700C0000082E385BB2FEF04
:1001100080E792E0215080409040E1F700C000006D
:1001200081E385BB2FEF80E792E021508040904033
:0C013000E1F700C000009CCFF894FFCF66
:00000001FF
