:100000000C942A000C9434000C9434000C943400AA
:100010000C9434000C9434000C9434000C94340090
:100020000C9434000C9434000C9434000C94340080
:100030000C9434000C9434000C9434000C94340070
:100040000C9434000C9434000C9434000C94340060
:100050000C94340011241FBECFE5D4E0DEBFCDBF29
:100060000E9436000C94A6000C940000CF93DF93FE
:10007000CDB7DEB72A970FB6F894DEBF0FBECDBF5F
:100080008FE784BB9FE091BB9FE3998396E09A83BF
:100090009BE59B839FE49C8396E69D839DE69E83E0
:1000A0009DE79F8397E0988789878FE68A87A0E0FE
:1000B000B0E048C02EE022BBE1E0F0E0EC0FFD1F15
:1000C000E40FF51F208125BBEFE1FEE43197F1F746
:1000D00000C000002DE022BBE1E0F0E0EC0FFD1FCE
:1000E000E60FF71F208125BBEFE1FEE43197F1F722
:1000F00000C000002BE022BBE1E0F0E0EC0FFD1FB0
:10010000EA0FFB1F208125BBEFE1FEE43197F1F7F9
:1001100000C00000019602C080E090E08A309105A6
:100120004CF24F5F5F4F02C040E050E04A30510553
:100130009CF36F5F7F4F02C060E070E06A30710532
:100140009CF31196AA30B105BCF3B1CFF894FFCF60
:00000001FF
