S01E00004C4544204D61747269782077697468204B65797061642E7372656342
S11300000C942A000C9434000C9434000C943400A6
S11300100C9434000C9434000C9434000C9434008C
S11300200C9434000C9434000C9434000C9434007C
S11300300C9434000C9434000C9434000C9434006C
S11300400C9434000C9434000C9434000C9434005C
S11300500C94340011241FBECFE5D4E0DEBFCDBF25
S11300600E9436000C948E000C94000087E08ABB3A
S113007087E784BB81E08BBBCC9B03C084E685BB54
S11300800EC0CD9B03C084E585BB09C0CE9B03C0D5
S113009084E385BB04C0CF9B02C087E085BB2FE708
S11300A089EA93E0215080409040E1F700C00000CD
S11300B082E08BBBCC9B03C082E685BB09C0CD9B91
S11300C003C082E585BB04C0CE9B02C082E385BB2E
S11300D02FE789EA93E0215080409040E1F700C087
S11300E0000084E08BBBCC9B03C081E685BB0CC0C5
S11300F0CD9B03C081E585BB07C0CE9B03C081E3D4
S113010085BB02C0CF9915BA2FE789EA93E0215045
S113011080409040E1F700C00000ACCFF894FFCFDE
S9030000FC
