S00B00004C43442E7372656346
S11300000C942A000C943F000C943F000C943F0085
S11300100C943F000C943F000C943F000C943F0060
S11300200C943F000C943F000C943F000C943F0050
S11300300C943F000C943F000C943F000C943F0040
S11300400C943F000C943F000C943F000C943F0030
S11300500C943F0011241FBECFE5D4E0DEBFCDBF1A
S113006010E0A0E6B0E0EAE6F1E002C005900D92EF
S1130070A837B107D9F70E948C000C94B3000C94F4
S1130080000015BA82BB82E085BB8FE19EE4019734
S1130090F1F700C0000015BA8FE19EE40197F1F773
S11300A000C00000089591E095BB82BB83E085BB4E
S11300B0EFE1FEE43197F1F700C0000095BB8FE15A
S11300C09EE40197F1F700C0000008952FEF82E548
S11300D097E0215080409040E1F700C0000088E3A1
S11300E00E94410086E00E9441008EE00E9441008F
S11300F081E00E94410080E80E9441000895CF936E
S1130100DF93EC0103C00E94530021968881811182
S1130110FACFDF91CF91089583E084BB8FEF81BB49
S11301200E94660080E80E94410080E690E00E9400
S11301307F002FEF89E698E1215080409040E1F75D
S113014000C0000080EC0E9441008EE690E00E9416
S11301507F002FEF89E698E1215080409040E1F73D
S10D016000C00000DFCFF894FFCFC9
S113016A48656C6C6F2053554448455348004869A8
S10B017A21212052656E75007D
S9030000FC
