:100000000C942A000C9434000C9434000C943400AA
:100010000C9434000C9434000C9434000C94340090
:100020000C9434000C9434000C9434000C94340080
:100030000C9434000C9434000C9434000C94340070
:100040000C9434000C9434000C9434000C94340060
:100050000C94340011241FBECFE5D4E0DEBFCDBF29
:100060000E9436000C9464000C94000083E08ABB6C
:1000700081E08BBB2FEF83ED90E3215080409040D7
:10008000E1F700C0000082E08BBB2FEF83ED90E32F
:10009000215080409040E1F700C0000083E08BBB1E
:1000A0002FEF83ED90E3215080409040E1F700C0B6
:1000B00000001BBA2FEF83ED90E321508040904069
:0C00C000E1F700C00000D4CFF894FFCF9F
:00000001FF
