S018000053776974636820496E746572666163652E73726563E9
S11300000C942A000C9434000C9434000C943400A6
S11300100C9434000C9434000C9434000C9434008C
S11300200C9434000C9434000C9434000C9434007C
S11300300C9434000C9434000C9434000C9434006C
S11300400C9434000C9434000C9434000C9434005C
S11300500C94340011241FBECFE5D4E0DEBFCDBF25
S11300600E9436000C9445000C9400001ABA8FE0EC
S113007084BBC89B03C083E085BBFBCFCF9B03C07D
S11100808CE085BBF6CF15BAF4CFF894FFCF11
S9030000FC
