:100000000C942A000C9434000C9434000C943400AA
:100010000C9434000C9434000C9434000C94340090
:100020000C9434000C9434000C9434000C94340080
:100030000C9434000C9434000C9434000C94340070
:100040000C9434000C9434000C9434000C94340060
:100050000C94340011241FBECFE5D4E0DEBFCDBF29
:100060000E9436000C948F000C9400008FEF8ABB26
:1000700091E89BBB2FEF30E792E021503040904059
:10008000E1F700C0000093EC9BBB2FEF30E792E05C
:10009000215030409040E1F700C0000097EE9BBB3C
:1000A0002FEF30E792E0215030409040E1F700C060
:1000B00000008BBB2FEF30E782E0215030408040C2
:1000C000E1F700C000008EE78BBB9FEF20E732E036
:1000D000915020403040E1F700C000008CE38BBB22
:1000E0008FEF90E722E0815090402040E1F700C080
:1000F000000088E18BBB3FEF80E792E03150804009
:100100009040E1F700C000001BBA2FEF30E782E01B
:10011000215030408040E1F700C00000FFCFF8944C
:02012000FFCF0F
:00000001FF
