:100000000C942A000C943F000C943F000C943F0089
:100010000C943F000C943F000C943F000C943F0064
:100020000C943F000C943F000C943F000C943F0054
:100030000C943F000C943F000C943F000C943F0044
:100040000C943F000C943F000C943F000C943F0034
:100050000C943F0011241FBECFE5D4E0DEBFCDBF1E
:1000600010E0A0E6B0E0E8ECF0E002C005900D92F0
:10007000AA36B107D9F70E9441000C9462000C9493
:1000800000001ABA8FE784BB80E090E0C89B07C0ED
:10009000C899FECF8930910551F001960DC0CF9BD4
:1000A0000BC0CF99FECF009729F0019705C080E0E3
:1000B00090E002C089E090E0FC01E05AFF4F20810F
:0800C00025BBE4CFF894FFCF4B
:0A00C8003F065B4F666D7D077F6FFA
:00000001FF
