:100000000C942A000C9434000C9434000C943400AA
:100010000C9434000C9434000C9434000C94340090
:100020000C9434000C9434000C9434000C94340080
:100030000C9434000C9434000C9434000C94340070
:100040000C9434000C9434000C9434000C94340060
:100050000C94340011241FBECFE5D4E0DEBFCDBF29
:100060000E9436000C946E000C9400008FE884BB54
:1000700083E487B986E886B986B1806486B9349B03
:10008000FECF84B195B1CF9740F084B195B187365A
:10009000910518F485E885BB17C084B195B189979F
:1000A00038F084B195B1CF9718F481E885BB0CC0C6
:1000B00084B195B1499738F084B195B1899718F416
:1000C00081E085BB01C015BA2FEF84E39CE021508D
:1000D00080409040E1F700C00000CECFF894FFCF01
:00000001FF
