:100000000C942A000C9434000C9434000C943400AA
:100010000C9434000C9434000C9434000C94340090
:100020000C9434000C9434000C9434000C94340080
:100030000C9434000C9434000C9434000C94340070
:100040000C9434000C9434000C9434000C94340060
:100050000C94340011241FBECFE5D4E0DEBFCDBF29
:100060000E9436000C944F000C94000083EC8ABB75
:1000700014BA989B03C080EC8BBBFBCF9B9B03C047
:1000800083E08BBBF6CF9A9B03C080E48BBBF1CFA0
:10009000999B03C080E88BBBECCF1BBAEACFF894E6
:0200A000FFCF90
:00000001FF
