:100000000C942A000C9447000C9447000C94470071
:100010000C9447000C9447000C9447000C94470044
:100020000C9447000C9447000C9447000C94470034
:100030000C9447000C9447000C9447000C94470024
:100040000C9447000C9447000C9447000C94470014
:100050000C94470011241FBECFE5D4E0DEBFCDBF16
:1000600010E0A0E6B0E0E2E5F9E002C005900D92F4
:10007000A03AB107D9F720E0A0EAB0E001C01D9294
:10008000A63AB207E1F70E9442010C94A7040C942F
:10009000000020E030E019C0B19BFECF80E58A95DA
:1000A000F1F7B19B09C08091A00090E0880F991FE3
:1000B00081608093A00005C08091A000880F80938C
:1000C000A000B199FECF2F5F3F4F2830310524F3B8
:1000D0008091A00090E0089595B39F70282F207F15
:1000E000922B95BB95B39E7F95BB95B3926095BBC4
:1000F000EFECF7E03197F1F700C0000095B39D7F7A
:1001000095BBEFECF7E03197F1F700C0000025B3A5
:10011000F0E18F9FC0011124922F9F70892B85BB26
:1001200085B38E7F85BB85B3826085BB8FEC97E0FE
:100130000197F1F700C0000085B38D7F85BBEFEC20
:10014000F7E03197F1F700C00000089595B39F7074
:10015000282F207F922B95BB95B3916095BB95B3CB
:10016000926095BBEFECF7E03197F1F700C000002B
:1001700095B39D7F95BBEFECF7E03197F1F700C0A9
:10018000000025B3F0E18F9FC0011124922F9F70D2
:10019000892B85BB85B3816085BB85B3826085BBB8
:1001A0008FEC97E00197F1F700C0000085B38D7FD9
:1001B00085BBEFECF7E03197F1F700C00000089540
:1001C0002FEF82E597E0215080409040E1F700C09A
:1001D000000083E30E946C0082E30E946C0088E2CE
:1001E0000E946C0086E00E946C008EE00E946C0011
:1001F00081E00E946C0080E80E946C000895CF931B
:10020000DF93EC0103C00E94A60021968881811132
:10021000FACFDF91CF9108958FEF87BB88B38D7FA1
:1002200088BB8FE39CE90197F1F700C0000088B319
:10023000826088BB8FE39CE90197F1F700C0000062
:1002400088B38D7F88BB8FE39CE90197F1F700C0ED
:10025000000080EC0E946C0080E690E00E94FF00AD
:10026000089587B38D7F87BBB199FECFB19BFECF39
:10027000B199FECF80EC0E946C008DE690E00E9468
:10028000FF000895CF93DF93CDB7DEB7A0970FB6E9
:10029000F894DEBF0FBECDBF8FEC84BB0E94E000A0
:1002A0000E940C010E9431010E9449008093A40029
:1002B0000E9449008093A1000E9449008093A300FE
:1002C0000E9449008093A5000E9449008093A200EB
:1002D0004091A4005091A100252F30E0240F311D42
:1002E0009091A300290F311D9091A500290F311D78
:1002F00090E02817390741F080E80E946C008BE7F6
:1003000090E00E94FF0032C01F925F931F924F93B4
:1003100081E890E09F938F938E010F5F1F4F1F9393
:100320000F930E94BD0180E80E946C00C8010E94EA
:10033000FF008091A5001F928F938091A3001F92D0
:100340008F938FE890E09F938F93005F1F4F1F93D1
:100350000F930E94BD0180EC0E946C00C8010E94B6
:10036000FF000FB6F894DEBF0FBECDBF8FE19EE455
:100370000197F1F700C0000093CFAEE0B0E0E3ECEE
:10038000F1E00C947E040D891E8986E08C831A832B
:1003900009838FEF9FE79E838D83AE01475E5F4F9A
:1003A0006F89788DCE0101960E94DF01EF81F8857B
:1003B000E00FF11F10822E96E4E00C949A04ABE05B
:1003C000B0E0E5EEF1E00C9470046C017B018A0171
:1003D000FC0117821682838181FFCCC1CE01019678
:1003E0003C01F6019381F70193FD859193FF819183
:1003F0007F01882309F4BAC1853239F493FD8591D0
:1004000093FF81917F01853229F4B60190E00E942B
:10041000D603E7CF912C212C312CFFE1F315D8F036
:100420008B3279F038F4803279F08332A1F4232DC5
:1004300020611DC08D3261F0803369F4232D21606D
:1004400016C0832D8260382EE32DE4603E2E2AC034
:10045000F32DF8601DC037FC2DC020ED280F2A3089
:1004600040F08E32B9F436FC81C1232D2064322E47
:1004700019C036FE06C08AE0989E200D1124922EE7
:1004800011C0EAE02E9E200D1124222EF32DF062E1
:100490003F2E08C08C3621F4832D8068382E02C090
:1004A000883641F4F70193FD859193FF81917F0197
:1004B0008111B3CF982F9F7D9554933028F40C5F12
:1004C0001F4F9FE399830DC0833631F0833771F05E
:1004D000833509F059C021C0F801808189830E5FFE
:1004E0001F4F88248394912C530113C02801F2E0FC
:1004F0004F0E511CF801A080B18036FE03C0692D5B
:1005000070E002C06FEF7FEFC5010E94CB034C018A
:100510008201F32DFF773F2E16C0280122E0420E04
:10052000511CF801A080B18036FE03C0692D70E037
:1005300002C06FEF7FEFC5010E94C0034C01F32D95
:10054000F0683F2E820133FC1BC0822D90E088169C
:100550009906B0F4B60180E290E00E94D6032A9496
:10056000F4CFF50137FC859137FE81915F01B6012B
:1005700090E00E94D60321102A9421E0821A91086B
:100580008114910471F7E8C0843611F0893641F581
:10059000F80137FE07C060817181828193810C5F11
:1005A0001F4F08C060817181072E000C880B990BCA
:1005B0000E5F1F4FF32DFF763F2E97FF09C09095DA
:1005C0008095709561957F4F8F4F9F4FF0683F2EBC
:1005D0002AE030E0A3010E941204882E861845C04C
:1005E000853731F4232D2F7EB22E2AE030E025C04E
:1005F000932D997FB92E8F36C1F018F4883579F094
:10060000B5C0803719F0883721F0B0C0E92FE0611C
:10061000BE2EB4FE0DC0FB2DF460BF2E09C034FE0B
:100620000AC0292F2660B22E06C028E030E005C09F
:1006300020E130E002C020E132E0F801B7FE07C05F
:1006400060817181828193810C5F1F4F06C0608140
:10065000718180E090E00E5F1F4FA3010E941204A1
:10066000882E8618FB2DFF773F2E36FE0DC0232DDA
:100670002E7FA22E891458F434FE0BC032FC09C020
:10068000832D8E7EA82E05C0B82CA32C03C0B82CB9
:1006900001C0B92CA4FE0FC0FE01E80DF11D808140
:1006A000803321F49A2D997EA92E09C0A2FE06C09E
:1006B000B394B39404C08A2D867809F0B394A3FC54
:1006C00011C0A0FE06C0B21488F4280C922C9B180E
:1006D0000EC0B21460F4B60180E290E00E94D6032E
:1006E000B394F7CFB21418F42B1802C0982C212C15
:1006F000A4FE10C0B60180E390E00E94D603A2FEE3
:1007000017C0A1FC03C088E790E002C088E590E034
:10071000B6010CC08A2D867859F0A1FE02C08BE28A
:1007200001C080E2A7FC8DE2B60190E00E94D603F2
:10073000891438F4B60180E390E00E94D6039A94BD
:10074000F7CF8A94F301E80DF11D8081B60190E0A6
:100750000E94D6038110F5CF222009F442CEB601C3
:1007600080E290E00E94D6032A94F6CFF6018681BB
:10077000978102C08FEF9FEF2B96E2E10C948C04DF
:10078000FC010590615070400110D8F7809590955C
:100790008E0F9F1F0895FC01615070400190011061
:1007A000D8F7809590958E0F9F1F08950F931F93F4
:1007B000CF93DF93FB01238121FD03C08FEF9FEFD8
:1007C0002CC022FF16C046815781248135814217F3
:1007D000530744F4A081B1819D012F5F3F4F3183C6
:1007E00020838C93268137812F5F3F4F3783268369
:1007F00014C08B01EC01FB010084F185E02D09950B
:10080000892BE1F6D80116968D919C911797019648
:1008100017969C938E931697CE01DF91CF911F91DF
:100820000F910895FA01AA27283051F1203181F162
:10083000E8946F936E7F6E5F7F4F8F4F9F4FAF4FE8
:10084000B1E03ED0B4E03CD0670F781F891F9A1FFB
:10085000A11D680F791F8A1F911DA11D6A0F711DAF
:10086000811D911DA11D20D009F468943F912AE0BB
:10087000269F11243019305D3193DEF6CF010895A3
:10088000462F4770405D4193B3E00FD0C9F7F6CFD4
:10089000462F4F70405D4A3318F0495D31FD40529C
:1008A000419302D0A9F7EACFB4E0A6959795879532
:1008B00077956795BA95C9F7009761057105089511
:1008C0009B01AC010A2E06945795479537952795BD
:1008D000BA95C9F7620F731F841F951FA01D089555
:1008E0002F923F924F925F926F927F928F929F9240
:1008F000AF92BF92CF92DF92EF92FF920F931F932E
:10090000CF93DF93CDB7DEB7CA1BDB0B0FB6F894DE
:10091000DEBF0FBECDBF09942A88398848885F841E
:100920006E847D848C849B84AA84B984C884DF808F
:10093000EE80FD800C811B81AA81B981CE0FD11D73
:100940000FB6F894DEBF0FBECDBFED010895F89449
:02095000FFCFD7
:100952005265717565737420446F6E6500526573DC
:10096200706F6E736520446F6E65004572726F72B0
:100972000048756D69643A25642E25642525005466
:10098200656D703A25642E25642044656743000036
:00000001FF
