:100000000C942A000C9434000C9434000C943400AA
:100010000C9434000C9434000C9434000C94340090
:100020000C9434000C9434000C9434000C94340080
:100030000C9434000C9434000C9434000C94340070
:100040000C9434000C9434000C9434000C94340060
:100050000C94340011241FBECFE5D4E0DEBFCDBF29
:100060000E9436000C946E000C94000083EC84BB5C
:1000700083E487B986E886B986B1806486B9349B03
:10008000FECF84B195B18D3B924018F081E485BBE1
:100090001BC084B195B18139914040F084B195B1D4
:1000A0008D3B924018F481E085BB0EC084B195B1C0
:1000B0008536910540F084B195B18139914018F4AD
:1000C00080E485BB01C015BA8FEF94E32CE081502A
:1000D00090402040E1F700C00000CECFF894FFCF61
:00000001FF
