S0160000375365676D656E744D61747269782E737265638F
S11300000C942A000C9434000C9434000C943400A6
S11300100C9434000C9434000C9434000C9434008C
S11300200C9434000C9434000C9434000C9434007C
S11300300C9434000C9434000C9434000C9434006C
S11300400C9434000C9434000C9434000C9434005C
S11300500C94340011241FBECFE5D4E0DEBFCDBF25
S11300600E9436000C9475000C940000CF93DF932B
S1130070CDB7DEB72A970FB6F894DEBF0FBECDBF5B
S11300808FE784BB8FE081BB8FE48C838DE68E8306
S113009087E088878FE68A878EE082BB8C8185BB68
S11300A08FE19EE40197F1F700C000008DE082BB70
S11300B08E8185BB8FE19EE40197F1F700C00000BB
S11300C08BE082BB888585BB8FE19EE40197F1F7C5
S11300D000C0000087E082BB8A8585BB8FE19EE477
S11100E00197F1F700C00000D7CFF894FFCFCE
S9030000FC
