S01E00004D6F746F7220436172205573696E67205377697463682E7372656307
S11300000C942A000C9434000C9434000C943400A6
S11300100C9434000C9434000C9434000C9434008C
S11300200C9434000C9434000C9434000C9434007C
S11300300C9434000C9434000C9434000C9434006C
S11300400C9434000C9434000C9434000C9434005C
S11300500C94340011241FBECFE5D4E0DEBFCDBF25
S11300600E9436000C9460000C94000083EC8ABB60
S113007014BA80E090E0989B09C09899FECF843030
S1130080910511F0019602C080E090E08130910565
S113009019F420EC2BBBEFCF8230910519F423E047
S11300A02BBBE9CF8330910519F420E42BBBE3CFBC
S11300B08430910519F420E82BBBDDCF1BBADBCFCC
S10700C0F894FFCFDE
S9030000FC
